{
  "contractName": "MyAuction",
  "abi": [
    {
      "inputs": [
        {
          "internalType": "string",
          "name": "brand",
          "type": "string"
        },
        {
          "internalType": "string",
          "name": "serial",
          "type": "string"
        },
        {
          "internalType": "uint256",
          "name": "period",
          "type": "uint256"
        }
      ],
      "stateMutability": "nonpayable",
      "type": "constructor"
    },
    {
      "anonymous": false,
      "inputs": [
        {
          "indexed": false,
          "internalType": "address",
          "name": "highestBidder",
          "type": "address"
        },
        {
          "indexed": false,
          "internalType": "uint256",
          "name": "highestBid",
          "type": "uint256"
        },
        {
          "indexed": false,
          "internalType": "uint256",
          "name": "timestamp",
          "type": "uint256"
        }
      ],
      "name": "BidEvent",
      "type": "event"
    },
    {
      "inputs": [],
      "name": "STATE",
      "outputs": [
        {
          "internalType": "enum Auction.AuctionState",
          "name": "",
          "type": "uint8"
        }
      ],
      "stateMutability": "view",
      "type": "function",
      "constant": true
    },
    {
      "inputs": [],
      "name": "auctionEnd",
      "outputs": [
        {
          "internalType": "uint256",
          "name": "",
          "type": "uint256"
        }
      ],
      "stateMutability": "view",
      "type": "function",
      "constant": true
    },
    {
      "inputs": [],
      "name": "auctionOwner",
      "outputs": [
        {
          "internalType": "address payable",
          "name": "",
          "type": "address"
        }
      ],
      "stateMutability": "view",
      "type": "function",
      "constant": true
    },
    {
      "inputs": [],
      "name": "auctionStart",
      "outputs": [
        {
          "internalType": "uint256",
          "name": "",
          "type": "uint256"
        }
      ],
      "stateMutability": "view",
      "type": "function",
      "constant": true
    },
    {
      "inputs": [],
      "name": "highestBid",
      "outputs": [
        {
          "internalType": "uint256",
          "name": "",
          "type": "uint256"
        }
      ],
      "stateMutability": "view",
      "type": "function",
      "constant": true
    },
    {
      "inputs": [],
      "name": "highestBidder",
      "outputs": [
        {
          "internalType": "address",
          "name": "",
          "type": "address"
        }
      ],
      "stateMutability": "view",
      "type": "function",
      "constant": true
    },
    {
      "inputs": [],
      "name": "myProduct",
      "outputs": [
        {
          "internalType": "string",
          "name": "Brand",
          "type": "string"
        },
        {
          "internalType": "string",
          "name": "SerialNum",
          "type": "string"
        }
      ],
      "stateMutability": "view",
      "type": "function",
      "constant": true
    },
    {
      "inputs": [],
      "name": "cancelAuction",
      "outputs": [
        {
          "internalType": "bool",
          "name": "",
          "type": "bool"
        }
      ],
      "stateMutability": "nonpayable",
      "type": "function"
    },
    {
      "inputs": [],
      "name": "endAuction",
      "outputs": [
        {
          "internalType": "bool",
          "name": "",
          "type": "bool"
        }
      ],
      "stateMutability": "nonpayable",
      "type": "function"
    },
    {
      "inputs": [],
      "name": "bid",
      "outputs": [
        {
          "internalType": "bool",
          "name": "",
          "type": "bool"
        }
      ],
      "stateMutability": "payable",
      "type": "function",
      "payable": true
    },
    {
      "inputs": [],
      "name": "getStatus",
      "outputs": [
        {
          "internalType": "int256",
          "name": "",
          "type": "int256"
        }
      ],
      "stateMutability": "nonpayable",
      "type": "function"
    },
    {
      "inputs": [],
      "name": "getProductInfo",
      "outputs": [
        {
          "internalType": "string",
          "name": "",
          "type": "string"
        },
        {
          "internalType": "string",
          "name": "",
          "type": "string"
        }
      ],
      "stateMutability": "view",
      "type": "function",
      "constant": true
    },
    {
      "inputs": [],
      "name": "withdraw",
      "outputs": [
        {
          "internalType": "bool",
          "name": "",
          "type": "bool"
        }
      ],
      "stateMutability": "nonpayable",
      "type": "function"
    },
    {
      "inputs": [
        {
          "internalType": "address",
          "name": "bidder",
          "type": "address"
        }
      ],
      "name": "getMyBid",
      "outputs": [
        {
          "internalType": "uint256",
          "name": "",
          "type": "uint256"
        }
      ],
      "stateMutability": "view",
      "type": "function",
      "constant": true
    }
  ],
  "bytecode": "0x60806040523480156200001157600080fd5b50604051620013fb380380620013fb8339818101604052810190620000379190620003ba565b336000806101000a81548173ffffffffffffffffffffffffffffffffffffffff021916908373ffffffffffffffffffffffffffffffffffffffff16021790555042600181905550610e10816200008e919062000483565b6001546200009d9190620004e4565b6002819055506000600460146101000a81548160ff02191690836003811115620000cc57620000cb62000541565b5b0217905550604051806040016040528084815260200183815250600560008201518160000190805190602001906200010692919062000132565b5060208201518160010190805190602001906200012592919062000132565b50905050505050620005d4565b82805462000140906200059f565b90600052602060002090601f016020900481019282620001645760008555620001b0565b82601f106200017f57805160ff1916838001178555620001b0565b82800160010185558215620001b0579182015b82811115620001af57825182559160200191906001019062000192565b5b509050620001bf9190620001c3565b5090565b5b80821115620001de576000816000905550600101620001c4565b5090565b6000604051905090565b600080fd5b600080fd5b600080fd5b600080fd5b6000601f19601f8301169050919050565b7f4e487b7100000000000000000000000000000000000000000000000000000000600052604160045260246000fd5b6200024b8262000200565b810181811067ffffffffffffffff821117156200026d576200026c62000211565b5b80604052505050565b600062000282620001e2565b905062000290828262000240565b919050565b600067ffffffffffffffff821115620002b357620002b262000211565b5b620002be8262000200565b9050602081019050919050565b60005b83811015620002eb578082015181840152602081019050620002ce565b83811115620002fb576000848401525b50505050565b600062000318620003128462000295565b62000276565b905082815260208101848484011115620003375762000336620001fb565b5b62000344848285620002cb565b509392505050565b600082601f830112620003645762000363620001f6565b5b81516200037684826020860162000301565b91505092915050565b6000819050919050565b62000394816200037f565b8114620003a057600080fd5b50565b600081519050620003b48162000389565b92915050565b600080600060608486031215620003d657620003d5620001ec565b5b600084015167ffffffffffffffff811115620003f757620003f6620001f1565b5b62000405868287016200034c565b935050602084015167ffffffffffffffff811115620004295762000428620001f1565b5b62000437868287016200034c565b92505060406200044a86828701620003a3565b9150509250925092565b7f4e487b7100000000000000000000000000000000000000000000000000000000600052601160045260246000fd5b600062000490826200037f565b91506200049d836200037f565b9250817fffffffffffffffffffffffffffffffffffffffffffffffffffffffffffffffff0483118215151615620004d957620004d862000454565b5b828202905092915050565b6000620004f1826200037f565b9150620004fe836200037f565b9250827fffffffffffffffffffffffffffffffffffffffffffffffffffffffffffffffff0382111562000536576200053562000454565b5b828201905092915050565b7f4e487b7100000000000000000000000000000000000000000000000000000000600052602160045260246000fd5b7f4e487b7100000000000000000000000000000000000000000000000000000000600052602260045260246000fd5b60006002820490506001821680620005b857607f821691505b602082108103620005ce57620005cd62000570565b5b50919050565b610e1780620005e46000396000f3fe6080604052600436106100dd5760003560e01c806391f901571161007f578063d3924aaf11610059578063d3924aaf14610296578063d57bde79146102c1578063fc72a385146102ec578063fe67a54b14610318576100dd565b806391f9015714610214578063bd3589671461023f578063c486456c1461026b576100dd565b80634e69d560116100bb5780634e69d560146101565780634f245ef7146101815780635337bde0146101ac5780638fa8b790146101e9576100dd565b80631998aeef146100e25780632a24f46c146101005780633ccfd60b1461012b575b600080fd5b6100ea610343565b6040516100f79190610971565b60405180910390f35b34801561010c57600080fd5b50610115610589565b60405161012291906109a5565b60405180910390f35b34801561013757600080fd5b5061014061058f565b60405161014d9190610971565b60405180910390f35b34801561016257600080fd5b5061016b610594565b60405161017891906109d9565b60405180910390f35b34801561018d57600080fd5b50610196610599565b6040516101a391906109a5565b60405180910390f35b3480156101b857600080fd5b506101d360048036038101906101ce9190610a57565b61059f565b6040516101e091906109a5565b60405180910390f35b3480156101f557600080fd5b506101fe6105e8565b60405161020b9190610971565b60405180910390f35b34801561022057600080fd5b50610229610646565b6040516102369190610a93565b60405180910390f35b34801561024b57600080fd5b5061025461066c565b604051610262929190610b47565b60405180910390f35b34801561027757600080fd5b5061028061078e565b60405161028d9190610bf5565b60405180910390f35b3480156102a257600080fd5b506102ab6107a1565b6040516102b89190610c31565b60405180910390f35b3480156102cd57600080fd5b506102d66107c5565b6040516102e391906109a5565b60405180910390f35b3480156102f857600080fd5b506103016107cb565b60405161030f929190610b47565b60405180910390f35b34801561032457600080fd5b5061032d6108f8565b60405161033a9190610971565b60405180910390f35b600080600381111561035857610357610b7e565b5b600460149054906101000a900460ff16600381111561037a57610379610b7e565b5b1461038457600080fd5b3373ffffffffffffffffffffffffffffffffffffffff16600460009054906101000a900473ffffffffffffffffffffffffffffffffffffffff1673ffffffffffffffffffffffffffffffffffffffff1603610414576040517f08c379a000000000000000000000000000000000000000000000000000000000815260040161040b90610cbe565b60405180910390fd5b6003543411610458576040517f08c379a000000000000000000000000000000000000000000000000000000000815260040161044f90610d2a565b60405180910390fd5b33600460006101000a81548173ffffffffffffffffffffffffffffffffffffffff021916908373ffffffffffffffffffffffffffffffffffffffff1602179055503460038190555034600760003373ffffffffffffffffffffffffffffffffffffffff1673ffffffffffffffffffffffffffffffffffffffff168152602001908152602001600020819055506008339080600181540180825580915050600190039060005260206000200160009091909190916101000a81548173ffffffffffffffffffffffffffffffffffffffff021916908373ffffffffffffffffffffffffffffffffffffffff1602179055507f8af6b8ce9e717802e71d82fde14340886903c7ba4a5513f0a177b5ae534066bf33344260405161057a93929190610d4a565b60405180910390a16001905090565b60025481565b600090565b600090565b60015481565b6000600760008373ffffffffffffffffffffffffffffffffffffffff1673ffffffffffffffffffffffffffffffffffffffff168152602001908152602001600020549050919050565b60008060009054906101000a900473ffffffffffffffffffffffffffffffffffffffff1673ffffffffffffffffffffffffffffffffffffffff163373ffffffffffffffffffffffffffffffffffffffff161461064357600080fd5b90565b600460009054906101000a900473ffffffffffffffffffffffffffffffffffffffff1681565b600580600001805461067d90610db0565b80601f01602080910402602001604051908101604052809291908181526020018280546106a990610db0565b80156106f65780601f106106cb576101008083540402835291602001916106f6565b820191906000526020600020905b8154815290600101906020018083116106d957829003601f168201915b50505050509080600101805461070b90610db0565b80601f016020809104026020016040519081016040528092919081815260200182805461073790610db0565b80156107845780601f1061075957610100808354040283529160200191610784565b820191906000526020600020905b81548152906001019060200180831161076757829003601f168201915b5050505050905082565b600460149054906101000a900460ff1681565b60008054906101000a900473ffffffffffffffffffffffffffffffffffffffff1681565b60035481565b606080600560000160056001018180546107e490610db0565b80601f016020809104026020016040519081016040528092919081815260200182805461081090610db0565b801561085d5780601f106108325761010080835404028352916020019161085d565b820191906000526020600020905b81548152906001019060200180831161084057829003601f168201915b5050505050915080805461087090610db0565b80601f016020809104026020016040519081016040528092919081815260200182805461089c90610db0565b80156108e95780601f106108be576101008083540402835291602001916108e9565b820191906000526020600020905b8154815290600101906020018083116108cc57829003601f168201915b50505050509050915091509091565b60008060009054906101000a900473ffffffffffffffffffffffffffffffffffffffff1673ffffffffffffffffffffffffffffffffffffffff163373ffffffffffffffffffffffffffffffffffffffff161461095357600080fd5b90565b60008115159050919050565b61096b81610956565b82525050565b60006020820190506109866000830184610962565b92915050565b6000819050919050565b61099f8161098c565b82525050565b60006020820190506109ba6000830184610996565b92915050565b6000819050919050565b6109d3816109c0565b82525050565b60006020820190506109ee60008301846109ca565b92915050565b600080fd5b600073ffffffffffffffffffffffffffffffffffffffff82169050919050565b6000610a24826109f9565b9050919050565b610a3481610a19565b8114610a3f57600080fd5b50565b600081359050610a5181610a2b565b92915050565b600060208284031215610a6d57610a6c6109f4565b5b6000610a7b84828501610a42565b91505092915050565b610a8d81610a19565b82525050565b6000602082019050610aa86000830184610a84565b92915050565b600081519050919050565b600082825260208201905092915050565b60005b83811015610ae8578082015181840152602081019050610acd565b83811115610af7576000848401525b50505050565b6000601f19601f8301169050919050565b6000610b1982610aae565b610b238185610ab9565b9350610b33818560208601610aca565b610b3c81610afd565b840191505092915050565b60006040820190508181036000830152610b618185610b0e565b90508181036020830152610b758184610b0e565b90509392505050565b7f4e487b7100000000000000000000000000000000000000000000000000000000600052602160045260246000fd5b60048110610bbe57610bbd610b7e565b5b50565b6000819050610bcf82610bad565b919050565b6000610bdf82610bc1565b9050919050565b610bef81610bd4565b82525050565b6000602082019050610c0a6000830184610be6565b92915050565b6000610c1b826109f9565b9050919050565b610c2b81610c10565b82525050565b6000602082019050610c466000830184610c22565b92915050565b7f616c726561646c7920612063757272656e74206869676865737420626964646560008201527f7200000000000000000000000000000000000000000000000000000000000000602082015250565b6000610ca8602183610ab9565b9150610cb382610c4c565b604082019050919050565b60006020820190508181036000830152610cd781610c9b565b9050919050565b7f4f6e6c79206869676865722062696420697320616c6c6f776564000000000000600082015250565b6000610d14601a83610ab9565b9150610d1f82610cde565b602082019050919050565b60006020820190508181036000830152610d4381610d07565b9050919050565b6000606082019050610d5f6000830186610a84565b610d6c6020830185610996565b610d796040830184610996565b949350505050565b7f4e487b7100000000000000000000000000000000000000000000000000000000600052602260045260246000fd5b60006002820490506001821680610dc857607f821691505b602082108103610ddb57610dda610d81565b5b5091905056fea26469706673582212205923c09de06dfaa87666e0fd272b4e953b36f0dff053e046f480d5c6a4c46e6164736f6c634300080d0033",
  "immutableReferences": {},
  "source": "// SPDX-License-Identifier: MIT\npragma solidity >=0.4.22 <0.9.0;\nimport \"./Auction.sol\";\n\ncontract MyAuction is Auction {\n    Product public myProduct;\n    mapping (address => uint) bids;\n    address [] bidders;\n\n    constructor(string memory brand, string memory serial, uint period) {\n        auctionOwner = payable(msg.sender); // address => address payable\n        auctionStart = block.timestamp;\n        auctionEnd = auctionStart + period * 1 hours;\n        STATE = AuctionState.STARTED;\n        myProduct = Product(brand, serial);\n    }\n\n    modifier onlyOwner {\n        require(msg.sender == auctionOwner);\n        _;\n    }\n\n    modifier onGoingAuction {\n        require(STATE == AuctionState.STARTED);\n        _;\n    }\n\n    function cancelAuction() public virtual override onlyOwner returns (bool) {}\n\n    function endAuction() public virtual override onlyOwner returns (bool) {}\n    event BidEvent (address highestBidder,uint highestBid,uint timestamp);\n    function bid() public  payable override  onGoingAuction returns (bool) {\n        require(highestBidder != msg.sender,\"alreadly a current highest bidder\");\n        require(msg.value > highestBid,\"Only higher bid is allowed\");\n        highestBidder = msg.sender;\n        highestBid = msg.value;\n        bids[msg.sender] = msg.value;\n        bidders.push(msg.sender);\n        emit BidEvent(msg.sender, msg.value, block.timestamp);\n        return true;\n    }\n\n    function getStatus() public virtual override returns (int256) {}\n\n    function getProductInfo()\n        public\n        view\n        override\n        returns (string memory, string memory)\n    {\n        return (myProduct.Brand, myProduct.SerialNum);\n    }\n\n    function withdraw() public virtual override returns (bool) {}\n\n    function getMyBid(\n        address bidder\n    ) public view override returns (uint256) {\n        return bids[bidder];\n    }\n}\n",
  "sourcePath": "C:\\Users\\Sayfar\\Desktop\\CE-340\\prep2-65\\slidity-tutorial\\contracts\\MyAuction.sol",
  "compiler": {
    "name": "solc",
    "version": "0.8.13+commit.abaa5c0e.Emscripten.clang"
  },
  "schemaVersion": "3.4.11",
  "updatedAt": "2023-02-27T08:20:52.727Z",
  "networkType": "ethereum",
  "devdoc": {
    "kind": "dev",
    "methods": {},
    "version": 1
  },
  "userdoc": {
    "kind": "user",
    "methods": {},
    "version": 1
  }
}