{
  "contractName": "MyAuction",
  "abi": [
    {
      "inputs": [
        {
          "internalType": "string",
          "name": "brand",
          "type": "string"
        },
        {
          "internalType": "string",
          "name": "serial",
          "type": "string"
        },
        {
          "internalType": "uint256",
          "name": "period",
          "type": "uint256"
        }
      ],
      "stateMutability": "nonpayable",
      "type": "constructor"
    },
    {
      "anonymous": false,
      "inputs": [
        {
          "indexed": false,
          "internalType": "address",
          "name": "highestBidder",
          "type": "address"
        },
        {
          "indexed": false,
          "internalType": "uint256",
          "name": "highestBid",
          "type": "uint256"
        },
        {
          "indexed": false,
          "internalType": "uint256",
          "name": "timestamp",
          "type": "uint256"
        }
      ],
      "name": "BidEvent",
      "type": "event"
    },
    {
      "anonymous": false,
      "inputs": [
        {
          "indexed": false,
          "internalType": "uint256",
          "name": "timestamp",
          "type": "uint256"
        }
      ],
      "name": "CancelEvent",
      "type": "event"
    },
    {
      "anonymous": false,
      "inputs": [
        {
          "indexed": false,
          "internalType": "address",
          "name": "highestBidder",
          "type": "address"
        },
        {
          "indexed": false,
          "internalType": "uint256",
          "name": "highestBid",
          "type": "uint256"
        },
        {
          "indexed": false,
          "internalType": "uint256",
          "name": "timestamp",
          "type": "uint256"
        }
      ],
      "name": "EndEvent",
      "type": "event"
    },
    {
      "anonymous": false,
      "inputs": [
        {
          "indexed": false,
          "internalType": "address",
          "name": "bidder",
          "type": "address"
        },
        {
          "indexed": false,
          "internalType": "uint256",
          "name": "amount",
          "type": "uint256"
        },
        {
          "indexed": false,
          "internalType": "uint256",
          "name": "timestampe",
          "type": "uint256"
        }
      ],
      "name": "withdrawEvent",
      "type": "event"
    },
    {
      "inputs": [],
      "name": "STATE",
      "outputs": [
        {
          "internalType": "enum Auction.AuctionState",
          "name": "",
          "type": "uint8"
        }
      ],
      "stateMutability": "view",
      "type": "function"
    },
    {
      "inputs": [],
      "name": "auctionEnd",
      "outputs": [
        {
          "internalType": "uint256",
          "name": "",
          "type": "uint256"
        }
      ],
      "stateMutability": "view",
      "type": "function"
    },
    {
      "inputs": [],
      "name": "auctionOwner",
      "outputs": [
        {
          "internalType": "address payable",
          "name": "",
          "type": "address"
        }
      ],
      "stateMutability": "view",
      "type": "function"
    },
    {
      "inputs": [],
      "name": "auctionStart",
      "outputs": [
        {
          "internalType": "uint256",
          "name": "",
          "type": "uint256"
        }
      ],
      "stateMutability": "view",
      "type": "function"
    },
    {
      "inputs": [],
      "name": "highestBid",
      "outputs": [
        {
          "internalType": "uint256",
          "name": "",
          "type": "uint256"
        }
      ],
      "stateMutability": "view",
      "type": "function"
    },
    {
      "inputs": [],
      "name": "highestBidder",
      "outputs": [
        {
          "internalType": "address",
          "name": "",
          "type": "address"
        }
      ],
      "stateMutability": "view",
      "type": "function"
    },
    {
      "inputs": [],
      "name": "myProduct",
      "outputs": [
        {
          "internalType": "string",
          "name": "Brand",
          "type": "string"
        },
        {
          "internalType": "string",
          "name": "SerialNum",
          "type": "string"
        }
      ],
      "stateMutability": "view",
      "type": "function"
    },
    {
      "inputs": [],
      "name": "cancelAuction",
      "outputs": [
        {
          "internalType": "bool",
          "name": "",
          "type": "bool"
        }
      ],
      "stateMutability": "nonpayable",
      "type": "function"
    },
    {
      "inputs": [],
      "name": "endAuction",
      "outputs": [
        {
          "internalType": "bool",
          "name": "",
          "type": "bool"
        }
      ],
      "stateMutability": "nonpayable",
      "type": "function"
    },
    {
      "inputs": [],
      "name": "bid",
      "outputs": [
        {
          "internalType": "bool",
          "name": "",
          "type": "bool"
        }
      ],
      "stateMutability": "payable",
      "type": "function"
    },
    {
      "inputs": [],
      "name": "getStatus",
      "outputs": [
        {
          "internalType": "int256",
          "name": "",
          "type": "int256"
        }
      ],
      "stateMutability": "nonpayable",
      "type": "function"
    },
    {
      "inputs": [],
      "name": "getProductInfo",
      "outputs": [
        {
          "internalType": "string",
          "name": "",
          "type": "string"
        },
        {
          "internalType": "string",
          "name": "",
          "type": "string"
        }
      ],
      "stateMutability": "view",
      "type": "function"
    },
    {
      "inputs": [],
      "name": "withdraw",
      "outputs": [
        {
          "internalType": "bool",
          "name": "",
          "type": "bool"
        }
      ],
      "stateMutability": "nonpayable",
      "type": "function"
    },
    {
      "inputs": [
        {
          "internalType": "address",
          "name": "bidder",
          "type": "address"
        }
      ],
      "name": "getMyBid",
      "outputs": [
        {
          "internalType": "uint256",
          "name": "",
          "type": "uint256"
        }
      ],
      "stateMutability": "view",
      "type": "function"
    }
  ],
  "bytecode": "0x60806040523480156200001157600080fd5b5060405162001908380380620019088339818101604052810190620000379190620003ba565b336000806101000a81548173ffffffffffffffffffffffffffffffffffffffff021916908373ffffffffffffffffffffffffffffffffffffffff16021790555042600181905550610e10816200008e919062000483565b6001546200009d9190620004e4565b6002819055506000600460146101000a81548160ff02191690836003811115620000cc57620000cb62000541565b5b0217905550604051806040016040528084815260200183815250600560008201518160000190805190602001906200010692919062000132565b5060208201518160010190805190602001906200012592919062000132565b50905050505050620005d4565b82805462000140906200059f565b90600052602060002090601f016020900481019282620001645760008555620001b0565b82601f106200017f57805160ff1916838001178555620001b0565b82800160010185558215620001b0579182015b82811115620001af57825182559160200191906001019062000192565b5b509050620001bf9190620001c3565b5090565b5b80821115620001de576000816000905550600101620001c4565b5090565b6000604051905090565b600080fd5b600080fd5b600080fd5b600080fd5b6000601f19601f8301169050919050565b7f4e487b7100000000000000000000000000000000000000000000000000000000600052604160045260246000fd5b6200024b8262000200565b810181811067ffffffffffffffff821117156200026d576200026c62000211565b5b80604052505050565b600062000282620001e2565b905062000290828262000240565b919050565b600067ffffffffffffffff821115620002b357620002b262000211565b5b620002be8262000200565b9050602081019050919050565b60005b83811015620002eb578082015181840152602081019050620002ce565b83811115620002fb576000848401525b50505050565b600062000318620003128462000295565b62000276565b905082815260208101848484011115620003375762000336620001fb565b5b62000344848285620002cb565b509392505050565b600082601f830112620003645762000363620001f6565b5b81516200037684826020860162000301565b91505092915050565b6000819050919050565b62000394816200037f565b8114620003a057600080fd5b50565b600081519050620003b48162000389565b92915050565b600080600060608486031215620003d657620003d5620001ec565b5b600084015167ffffffffffffffff811115620003f757620003f6620001f1565b5b62000405868287016200034c565b935050602084015167ffffffffffffffff811115620004295762000428620001f1565b5b62000437868287016200034c565b92505060406200044a86828701620003a3565b9150509250925092565b7f4e487b7100000000000000000000000000000000000000000000000000000000600052601160045260246000fd5b600062000490826200037f565b91506200049d836200037f565b9250817fffffffffffffffffffffffffffffffffffffffffffffffffffffffffffffffff0483118215151615620004d957620004d862000454565b5b828202905092915050565b6000620004f1826200037f565b9150620004fe836200037f565b9250827fffffffffffffffffffffffffffffffffffffffffffffffffffffffffffffffff0382111562000536576200053562000454565b5b828201905092915050565b7f4e487b7100000000000000000000000000000000000000000000000000000000600052602160045260246000fd5b7f4e487b7100000000000000000000000000000000000000000000000000000000600052602260045260246000fd5b60006002820490506001821680620005b857607f821691505b602082108103620005ce57620005cd62000570565b5b50919050565b61132480620005e46000396000f3fe6080604052600436106100dd5760003560e01c806391f901571161007f578063d3924aaf11610059578063d3924aaf14610296578063d57bde79146102c1578063fc72a385146102ec578063fe67a54b14610318576100dd565b806391f9015714610214578063bd3589671461023f578063c486456c1461026b576100dd565b80634e69d560116100bb5780634e69d560146101565780634f245ef7146101815780635337bde0146101ac5780638fa8b790146101e9576100dd565b80631998aeef146100e25780632a24f46c146101005780633ccfd60b1461012b575b600080fd5b6100ea610343565b6040516100f79190610cee565b60405180910390f35b34801561010c57600080fd5b50610115610589565b6040516101229190610d22565b60405180910390f35b34801561013757600080fd5b5061014061058f565b60405161014d9190610cee565b60405180910390f35b34801561016257600080fd5b5061016b61081d565b6040516101789190610d56565b60405180910390f35b34801561018d57600080fd5b50610196610822565b6040516101a39190610d22565b60405180910390f35b3480156101b857600080fd5b506101d360048036038101906101ce9190610dd4565b610828565b6040516101e09190610d22565b60405180910390f35b3480156101f557600080fd5b506101fe610871565b60405161020b9190610cee565b60405180910390f35b34801561022057600080fd5b50610229610935565b6040516102369190610e10565b60405180910390f35b34801561024b57600080fd5b5061025461095b565b604051610262929190610ec4565b60405180910390f35b34801561027757600080fd5b50610280610a7d565b60405161028d9190610f72565b60405180910390f35b3480156102a257600080fd5b506102ab610a90565b6040516102b89190610fae565b60405180910390f35b3480156102cd57600080fd5b506102d6610ab4565b6040516102e39190610d22565b60405180910390f35b3480156102f857600080fd5b50610301610aba565b60405161030f929190610ec4565b60405180910390f35b34801561032457600080fd5b5061032d610be7565b60405161033a9190610cee565b60405180910390f35b600080600381111561035857610357610efb565b5b600460149054906101000a900460ff16600381111561037a57610379610efb565b5b1461038457600080fd5b3373ffffffffffffffffffffffffffffffffffffffff16600460009054906101000a900473ffffffffffffffffffffffffffffffffffffffff1673ffffffffffffffffffffffffffffffffffffffff1603610414576040517f08c379a000000000000000000000000000000000000000000000000000000000815260040161040b9061103b565b60405180910390fd5b6003543411610458576040517f08c379a000000000000000000000000000000000000000000000000000000000815260040161044f906110a7565b60405180910390fd5b33600460006101000a81548173ffffffffffffffffffffffffffffffffffffffff021916908373ffffffffffffffffffffffffffffffffffffffff1602179055503460038190555034600760003373ffffffffffffffffffffffffffffffffffffffff1673ffffffffffffffffffffffffffffffffffffffff168152602001908152602001600020819055506008339080600181540180825580915050600190039060005260206000200160009091909190916101000a81548173ffffffffffffffffffffffffffffffffffffffff021916908373ffffffffffffffffffffffffffffffffffffffff1602179055507f8af6b8ce9e717802e71d82fde14340886903c7ba4a5513f0a177b5ae534066bf33344260405161057a939291906110c7565b60405180910390a16001905090565b60025481565b6000600460009054906101000a900473ffffffffffffffffffffffffffffffffffffffff1673ffffffffffffffffffffffffffffffffffffffff163373ffffffffffffffffffffffffffffffffffffffff1603610621576040517f08c379a00000000000000000000000000000000000000000000000000000000081526004016106189061114a565b60405180910390fd5b6000600381111561063557610634610efb565b5b600460149054906101000a900460ff16600381111561065757610656610efb565b5b03610697576040517f08c379a000000000000000000000000000000000000000000000000000000000815260040161068e906111dc565b60405180910390fd5b6003808111156106aa576106a9610efb565b5b600460149054906101000a900460ff1660038111156106cc576106cb610efb565b5b0361070c576040517f08c379a00000000000000000000000000000000000000000000000000000000081526004016107039061126e565b60405180910390fd5b6000600760003373ffffffffffffffffffffffffffffffffffffffff1673ffffffffffffffffffffffffffffffffffffffff168152602001908152602001600020549050600760003373ffffffffffffffffffffffffffffffffffffffff1673ffffffffffffffffffffffffffffffffffffffff168152602001908152602001600020600090553373ffffffffffffffffffffffffffffffffffffffff166108fc829081150290604051600060405180830381858888f193505050501580156107d9573d6000803e3d6000fd5b507f3f5274d9edd3b530545223adc84dcf865f2433783bc200984750bd356af5725333824260405161080d939291906110c7565b60405180910390a1600191505090565b600090565b60015481565b6000600760008373ffffffffffffffffffffffffffffffffffffffff1673ffffffffffffffffffffffffffffffffffffffff168152602001908152602001600020549050919050565b60008060009054906101000a900473ffffffffffffffffffffffffffffffffffffffff1673ffffffffffffffffffffffffffffffffffffffff163373ffffffffffffffffffffffffffffffffffffffff16146108cc57600080fd5b6001600460146101000a81548160ff021916908360038111156108f2576108f1610efb565b5b02179055507fe933406ce445ea24d84ca4529e514adc8926e62cdc8b5a67c568c9fd578f1a8a426040516109269190610d22565b60405180910390a16001905090565b600460009054906101000a900473ffffffffffffffffffffffffffffffffffffffff1681565b600580600001805461096c906112bd565b80601f0160208091040260200160405190810160405280929190818152602001828054610998906112bd565b80156109e55780601f106109ba576101008083540402835291602001916109e5565b820191906000526020600020905b8154815290600101906020018083116109c857829003601f168201915b5050505050908060010180546109fa906112bd565b80601f0160208091040260200160405190810160405280929190818152602001828054610a26906112bd565b8015610a735780601f10610a4857610100808354040283529160200191610a73565b820191906000526020600020905b815481529060010190602001808311610a5657829003601f168201915b5050505050905082565b600460149054906101000a900460ff1681565b60008054906101000a900473ffffffffffffffffffffffffffffffffffffffff1681565b60035481565b60608060056000016005600101818054610ad3906112bd565b80601f0160208091040260200160405190810160405280929190818152602001828054610aff906112bd565b8015610b4c5780601f10610b2157610100808354040283529160200191610b4c565b820191906000526020600020905b815481529060010190602001808311610b2f57829003601f168201915b50505050509150808054610b5f906112bd565b80601f0160208091040260200160405190810160405280929190818152602001828054610b8b906112bd565b8015610bd85780601f10610bad57610100808354040283529160200191610bd8565b820191906000526020600020905b815481529060010190602001808311610bbb57829003601f168201915b50505050509050915091509091565b60008060009054906101000a900473ffffffffffffffffffffffffffffffffffffffff1673ffffffffffffffffffffffffffffffffffffffff163373ffffffffffffffffffffffffffffffffffffffff1614610c4257600080fd5b6002600460146101000a81548160ff02191690836003811115610c6857610c67610efb565b5b02179055507fa924629d4099d6537de855ae6fb7a38e37a8d9717b2b51c33b8f6da2f20b82dd600460009054906101000a900473ffffffffffffffffffffffffffffffffffffffff1660035442604051610cc4939291906110c7565b60405180910390a16001905090565b60008115159050919050565b610ce881610cd3565b82525050565b6000602082019050610d036000830184610cdf565b92915050565b6000819050919050565b610d1c81610d09565b82525050565b6000602082019050610d376000830184610d13565b92915050565b6000819050919050565b610d5081610d3d565b82525050565b6000602082019050610d6b6000830184610d47565b92915050565b600080fd5b600073ffffffffffffffffffffffffffffffffffffffff82169050919050565b6000610da182610d76565b9050919050565b610db181610d96565b8114610dbc57600080fd5b50565b600081359050610dce81610da8565b92915050565b600060208284031215610dea57610de9610d71565b5b6000610df884828501610dbf565b91505092915050565b610e0a81610d96565b82525050565b6000602082019050610e256000830184610e01565b92915050565b600081519050919050565b600082825260208201905092915050565b60005b83811015610e65578082015181840152602081019050610e4a565b83811115610e74576000848401525b50505050565b6000601f19601f8301169050919050565b6000610e9682610e2b565b610ea08185610e36565b9350610eb0818560208601610e47565b610eb981610e7a565b840191505092915050565b60006040820190508181036000830152610ede8185610e8b565b90508181036020830152610ef28184610e8b565b90509392505050565b7f4e487b7100000000000000000000000000000000000000000000000000000000600052602160045260246000fd5b60048110610f3b57610f3a610efb565b5b50565b6000819050610f4c82610f2a565b919050565b6000610f5c82610f3e565b9050919050565b610f6c81610f51565b82525050565b6000602082019050610f876000830184610f63565b92915050565b6000610f9882610d76565b9050919050565b610fa881610f8d565b82525050565b6000602082019050610fc36000830184610f9f565b92915050565b7f616c726561646c7920612063757272656e74206869676865737420626964646560008201527f7200000000000000000000000000000000000000000000000000000000000000602082015250565b6000611025602183610e36565b915061103082610fc9565b604082019050919050565b6000602082019050818103600083015261105481611018565b9050919050565b7f4f6e6c79206869676865722062696420697320616c6c6f776564000000000000600082015250565b6000611091601a83610e36565b915061109c8261105b565b602082019050919050565b600060208201905081810360008301526110c081611084565b9050919050565b60006060820190506110dc6000830186610e01565b6110e96020830185610d13565b6110f66040830184610d13565b949350505050565b7f5468652077696e6e65722063616e206e6f742077697468647261770000000000600082015250565b6000611134601b83610e36565b915061113f826110fe565b602082019050919050565b6000602082019050818103600083015261116381611127565b9050919050565b7f43616e206e6f7420776974647261772066726f6d206f6e676f696e672061756360008201527f74696f6e00000000000000000000000000000000000000000000000000000000602082015250565b60006111c6602483610e36565b91506111d18261116a565b604082019050919050565b600060208201905081810360008301526111f5816111b9565b9050919050565b7f43616e206e6f742077697468647261772066726f6d2064657374726f7465642060008201527f636f6e7472616374000000000000000000000000000000000000000000000000602082015250565b6000611258602883610e36565b9150611263826111fc565b604082019050919050565b600060208201905081810360008301526112878161124b565b9050919050565b7f4e487b7100000000000000000000000000000000000000000000000000000000600052602260045260246000fd5b600060028204905060018216806112d557607f821691505b6020821081036112e8576112e761128e565b5b5091905056fea2646970667358221220fea6548a1d6791672f9e665edf3b49b6b57f7f7c81bb0b62018fa41911e7358a64736f6c634300080d0033",
  "immutableReferences": {},
  "source": "// SPDX-License-Identifier: MIT\npragma solidity >=0.4.22 <0.9.0;\nimport \"./Auction.sol\";\n\ncontract MyAuction is Auction {\n    Product public myProduct;\n    mapping (address => uint) bids;\n    address [] bidders;\n\n    constructor(string memory brand, string memory serial, uint period) {\n        auctionOwner = payable(msg.sender); // address => address payable\n        auctionStart = block.timestamp;\n        auctionEnd = auctionStart + period * 1 hours;\n        STATE = AuctionState.STARTED;\n        myProduct = Product(brand, serial);\n    }\n\n    modifier onlyOwner {\n        require(msg.sender == auctionOwner);\n        _;\n    }\n\n    modifier onGoingAuction {\n        require(STATE == AuctionState.STARTED);\n        _;\n    }\n    event CancelEvent(uint timestamp);\n    function cancelAuction() public  override onlyOwner returns (bool) {\n        STATE = AuctionState.CANCELLED;\n        emit CancelEvent(block.timestamp);\n        return true;\n    }\n    event EndEvent(address highestBidder,uint highestBid,uint timestamp);\n    function endAuction() public  override onlyOwner returns (bool) {\n        STATE = AuctionState.ENDED;\n        emit EndEvent(highestBidder,highestBid,block.timestamp);\n        return true;\n    }\n    event BidEvent (address highestBidder,uint highestBid,uint timestamp);\n    function bid() public  payable override  onGoingAuction returns (bool) {\n        require(highestBidder != msg.sender,\"alreadly a current highest bidder\");\n        require(msg.value > highestBid,\"Only higher bid is allowed\");\n        highestBidder = msg.sender;\n        highestBid = msg.value;\n        bids[msg.sender] = msg.value;\n        bidders.push(msg.sender);\n        emit BidEvent(msg.sender, msg.value, block. timestamp);\n        return true;\n    }\n\n    function getStatus() public virtual override returns (int256) {}\n\n    function getProductInfo()\n        public\n        view\n        override\n        returns (string memory, string memory)\n    {\n        return (myProduct.Brand, myProduct.SerialNum);\n    }\n    event withdrawEvent(address bidder,uint amount,uint timestampe);\n    function withdraw() public  override returns (bool) {\n        require(msg.sender != highestBidder,\"The winner can not withdraw\");\n        require(STATE != AuctionState.STARTED,\"Can not witdraw from ongoing auction\");\n        require(STATE != AuctionState.DESTRUCTED,\"Can not withdraw from destroted contract\");\n      \n        uint amount = bids[msg.sender];\n        delete bids[msg.sender];\n        payable(msg.sender).transfer(amount);\n        emit withdrawEvent(msg.sender, amount,block.timestamp);\n        return true;\n    }\n\n    function getMyBid(\n        address bidder\n    ) public view override returns (uint256) {\n        return bids[bidder];\n    }\n}\n",
  "sourcePath": "C:\\Users\\Sayfar\\OneDrive\\\\CE-340\\prep2-65\\slidity-tutorial\\contracts\\MyAuction.sol",
  "compiler": {
    "name": "solc",
    "version": "0.8.13+commit.abaa5c0e.Emscripten.clang"
  },
  "schemaVersion": "3.4.13",
  "updatedAt": "2023-04-18T04:08:51.097Z",
  "networkType": "ethereum",
  "devdoc": {
    "kind": "dev",
    "methods": {},
    "version": 1
  },
  "userdoc": {
    "kind": "user",
    "methods": {},
    "version": 1
  }
}