{
  "contractName": "PetShops",
  "abi": [
    {
      "inputs": [
        {
          "internalType": "uint256[]",
          "name": "petPrices",
          "type": "uint256[]"
        }
      ],
      "stateMutability": "nonpayable",
      "type": "constructor"
    },
    {
      "anonymous": false,
      "inputs": [
        {
          "indexed": false,
          "internalType": "uint256",
          "name": "petId",
          "type": "uint256"
        },
        {
          "indexed": true,
          "internalType": "address",
          "name": "buyer",
          "type": "address"
        },
        {
          "indexed": false,
          "internalType": "uint256",
          "name": "price",
          "type": "uint256"
        },
        {
          "indexed": false,
          "internalType": "uint256",
          "name": "time",
          "type": "uint256"
        }
      ],
      "name": "Sold",
      "type": "event"
    },
    {
      "anonymous": false,
      "inputs": [
        {
          "indexed": false,
          "internalType": "uint256",
          "name": "amount",
          "type": "uint256"
        },
        {
          "indexed": true,
          "internalType": "uint256",
          "name": "time",
          "type": "uint256"
        }
      ],
      "name": "Withdraw",
      "type": "event"
    },
    {
      "inputs": [],
      "name": "petCount",
      "outputs": [
        {
          "internalType": "uint256",
          "name": "",
          "type": "uint256"
        }
      ],
      "stateMutability": "view",
      "type": "function"
    },
    {
      "inputs": [
        {
          "internalType": "uint256",
          "name": "",
          "type": "uint256"
        }
      ],
      "name": "petInfos",
      "outputs": [
        {
          "internalType": "uint256",
          "name": "price",
          "type": "uint256"
        },
        {
          "internalType": "address",
          "name": "buyer",
          "type": "address"
        }
      ],
      "stateMutability": "view",
      "type": "function"
    },
    {
      "inputs": [],
      "name": "shopOwner",
      "outputs": [
        {
          "internalType": "address payable",
          "name": "",
          "type": "address"
        }
      ],
      "stateMutability": "view",
      "type": "function"
    },
    {
      "inputs": [
        {
          "internalType": "uint256",
          "name": "petId",
          "type": "uint256"
        }
      ],
      "name": "buy",
      "outputs": [],
      "stateMutability": "payable",
      "type": "function"
    },
    {
      "inputs": [
        {
          "internalType": "uint256",
          "name": "petId",
          "type": "uint256"
        }
      ],
      "name": "getPetInfo",
      "outputs": [
        {
          "internalType": "address",
          "name": "",
          "type": "address"
        }
      ],
      "stateMutability": "view",
      "type": "function"
    },
    {
      "inputs": [
        {
          "internalType": "uint256",
          "name": "petId",
          "type": "uint256"
        }
      ],
      "name": "getBuyer",
      "outputs": [
        {
          "internalType": "address",
          "name": "",
          "type": "address"
        }
      ],
      "stateMutability": "view",
      "type": "function"
    },
    {
      "inputs": [
        {
          "internalType": "uint256",
          "name": "petId",
          "type": "uint256"
        }
      ],
      "name": "getPrice",
      "outputs": [
        {
          "internalType": "uint256",
          "name": "",
          "type": "uint256"
        }
      ],
      "stateMutability": "view",
      "type": "function"
    },
    {
      "inputs": [],
      "name": "getBalance",
      "outputs": [
        {
          "internalType": "uint256",
          "name": "",
          "type": "uint256"
        }
      ],
      "stateMutability": "view",
      "type": "function"
    },
    {
      "inputs": [
        {
          "internalType": "uint256",
          "name": "amount",
          "type": "uint256"
        }
      ],
      "name": "withdraw",
      "outputs": [],
      "stateMutability": "nonpayable",
      "type": "function"
    },
    {
      "inputs": [],
      "name": "getTotalPets",
      "outputs": [
        {
          "internalType": "uint256",
          "name": "",
          "type": "uint256"
        }
      ],
      "stateMutability": "view",
      "type": "function"
    }
  ],
  "bytecode": "0x60806040523480156200001157600080fd5b5060405162000cec38038062000cec833981810160405281019062000037919062000350565b336000806101000a81548173ffffffffffffffffffffffffffffffffffffffff021916908373ffffffffffffffffffffffffffffffffffffffff16021790555060005b81518110156200017c5760006040518060400160405280670de0b6b3a7640000858581518110620000b057620000af620003a1565b5b6020026020010151620000c49190620003ff565b8152602001600073ffffffffffffffffffffffffffffffffffffffff16815250905060028190806001815401808255809150506001900390600052602060002090600202016000909190919091506000820151816000015560208201518160010160006101000a81548173ffffffffffffffffffffffffffffffffffffffff021916908373ffffffffffffffffffffffffffffffffffffffff1602179055505050508080620001739062000460565b9150506200007a565b50805160018190555050620004ad565b6000604051905090565b600080fd5b600080fd5b600080fd5b6000601f19601f8301169050919050565b7f4e487b7100000000000000000000000000000000000000000000000000000000600052604160045260246000fd5b620001f082620001a5565b810181811067ffffffffffffffff82111715620002125762000211620001b6565b5b80604052505050565b6000620002276200018c565b9050620002358282620001e5565b919050565b600067ffffffffffffffff821115620002585762000257620001b6565b5b602082029050602081019050919050565b600080fd5b6000819050919050565b62000283816200026e565b81146200028f57600080fd5b50565b600081519050620002a38162000278565b92915050565b6000620002c0620002ba846200023a565b6200021b565b90508083825260208201905060208402830185811115620002e657620002e562000269565b5b835b81811015620003135780620002fe888262000292565b845260208401935050602081019050620002e8565b5050509392505050565b600082601f830112620003355762000334620001a0565b5b815162000347848260208601620002a9565b91505092915050565b60006020828403121562000369576200036862000196565b5b600082015167ffffffffffffffff8111156200038a57620003896200019b565b5b62000398848285016200031d565b91505092915050565b7f4e487b7100000000000000000000000000000000000000000000000000000000600052603260045260246000fd5b7f4e487b7100000000000000000000000000000000000000000000000000000000600052601160045260246000fd5b60006200040c826200026e565b915062000419836200026e565b9250817fffffffffffffffffffffffffffffffffffffffffffffffffffffffffffffffff0483118215151615620004555762000454620003d0565b5b828202905092915050565b60006200046d826200026e565b91507fffffffffffffffffffffffffffffffffffffffffffffffffffffffffffffffff8203620004a257620004a1620003d0565b5b600182019050919050565b61082f80620004bd6000396000f3fe6080604052600436106100915760003560e01c806380f03fa61161005957806380f03fa61461018f578063cd619f58146101ba578063d96a094a146101e5578063e757223014610201578063e8ac35431461023e57610091565b8063052cbab61461009657806312065fe0146100c15780632e1a7d4d146100ec5780635bf608b81461011557806369c3f31614610152575b600080fd5b3480156100a257600080fd5b506100ab61027c565b6040516100b89190610583565b60405180910390f35b3480156100cd57600080fd5b506100d66102a0565b6040516100e391906105b7565b60405180910390f35b3480156100f857600080fd5b50610113600480360381019061010e9190610603565b610337565b005b34801561012157600080fd5b5061013c60048036038101906101379190610603565b6103c8565b6040516101499190610651565b60405180910390f35b34801561015e57600080fd5b5061017960048036038101906101749190610603565b6103cf565b6040516101869190610651565b60405180910390f35b34801561019b57600080fd5b506101a461041e565b6040516101b191906105b7565b60405180910390f35b3480156101c657600080fd5b506101cf610428565b6040516101dc91906105b7565b60405180910390f35b6101ff60048036038101906101fa9190610603565b61042e565b005b34801561020d57600080fd5b5061022860048036038101906102239190610603565b6104bf565b60405161023591906105b7565b60405180910390f35b34801561024a57600080fd5b5061026560048036038101906102609190610603565b6104ee565b60405161027392919061066c565b60405180910390f35b60008054906101000a900473ffffffffffffffffffffffffffffffffffffffff1681565b60008060009054906101000a900473ffffffffffffffffffffffffffffffffffffffff1673ffffffffffffffffffffffffffffffffffffffff163373ffffffffffffffffffffffffffffffffffffffff1614610331576040517f08c379a000000000000000000000000000000000000000000000000000000000815260040161032890610718565b60405180910390fd5b47905090565b60008054906101000a900473ffffffffffffffffffffffffffffffffffffffff1673ffffffffffffffffffffffffffffffffffffffff163373ffffffffffffffffffffffffffffffffffffffff16146103c5576040517f08c379a00000000000000000000000000000000000000000000000000000000081526004016103bc90610718565b60405180910390fd5b50565b6000919050565b6000600282815481106103e5576103e4610738565b5b906000526020600020906002020160010160009054906101000a900473ffffffffffffffffffffffffffffffffffffffff169050919050565b6000600154905090565b60015481565b60008054906101000a900473ffffffffffffffffffffffffffffffffffffffff1673ffffffffffffffffffffffffffffffffffffffff163373ffffffffffffffffffffffffffffffffffffffff16036104bc576040517f08c379a00000000000000000000000000000000000000000000000000000000081526004016104b3906107d9565b60405180910390fd5b50565b6000600282815481106104d5576104d4610738565b5b9060005260206000209060020201600001549050919050565b600281815481106104fe57600080fd5b90600052602060002090600202016000915090508060000154908060010160009054906101000a900473ffffffffffffffffffffffffffffffffffffffff16905082565b600073ffffffffffffffffffffffffffffffffffffffff82169050919050565b600061056d82610542565b9050919050565b61057d81610562565b82525050565b60006020820190506105986000830184610574565b92915050565b6000819050919050565b6105b18161059e565b82525050565b60006020820190506105cc60008301846105a8565b92915050565b600080fd5b6105e08161059e565b81146105eb57600080fd5b50565b6000813590506105fd816105d7565b92915050565b600060208284031215610619576106186105d2565b5b6000610627848285016105ee565b91505092915050565b600061063b82610542565b9050919050565b61064b81610630565b82525050565b60006020820190506106666000830184610642565b92915050565b600060408201905061068160008301856105a8565b61068e6020830184610642565b9392505050565b600082825260208201905092915050565b7f4f6e6c79206f776e65722063616e2063616c6c20746869732066756e6374696f60008201527f6e2e000000000000000000000000000000000000000000000000000000000000602082015250565b6000610702602283610695565b915061070d826106a6565b604082019050919050565b60006020820190508181036000830152610731816106f5565b9050919050565b7f4e487b7100000000000000000000000000000000000000000000000000000000600052603260045260246000fd5b7f4f6e6c79206f776e65722063616e27742063616c6c20746869732066756e637460008201527f696f6e2e00000000000000000000000000000000000000000000000000000000602082015250565b60006107c3602483610695565b91506107ce82610767565b604082019050919050565b600060208201905081810360008301526107f2816107b6565b905091905056fea2646970667358221220a7e03d786f500074db18201f7d07a97841de3f8122ae09466ac2de409942e75564736f6c634300080d0033",
  "immutableReferences": {},
  "source": "// SPDX-License-Identifier: MIT\npragma solidity >=0.4.22 <0.9.0;\n\ncontract PetShops {\n  address payable public shopOwner; //\n  uint public petCount; // \n\n  struct PetInfo {\n    uint price;\n    address buyer;\n  }\n\n  PetInfo[] public petInfos;\n\n  constructor(uint[] memory petPrices) {\n    shopOwner = payable(msg.sender);\n\n    for (uint i = 0; i < petPrices.length; i++) {\n      PetInfo memory info = PetInfo(petPrices[i] * 1 ether, address(0));\n      petInfos.push(info);\n    }\n\n    petCount = petPrices.length;\n  }\n\n  modifier onlyOwner {\n    require(msg.sender == shopOwner, \"Only owner can call this function.\");\n    _;\n  }\n\n  modifier notAnOwner {\n    require(msg.sender != shopOwner, \"Only owner can't call this function.\");\n     _;\n  }\n\n  function buy(uint petId) external payable notAnOwner {\n\n  }\n\n  function getPetInfo(uint petId) external view returns (address) {\n    return petInfos[petId].buyer;\n  }\n\n  function getBuyer(uint petId) external view returns (address) {\n\n  }\n\n  function getPrice(uint petId) external view returns(uint) {\n    return petInfos[petId].price;\n  }\n\n  function getBalance() external view onlyOwner returns (uint) {\n    return address(this).balance;\n  }\n\n  function withdraw(uint amount) external onlyOwner {\n\n  } \n\n  function getTotalPets() external view returns (uint) {\n      return petCount;\n  }\n\n  // indexed  blockchain explorer  |  1 event  indexed  3 \n  event Sold(uint petId, address indexed buyer, uint price, uint time);\n  event Withdraw(uint amount, uint indexed time);\n}",
  "sourcePath": "C:\\Users\\Sayfar\\OneDrive\\\\CE-340\\prep2-65\\slidity-tutorial\\contracts\\Petshop.sol",
  "compiler": {
    "name": "solc",
    "version": "0.8.13+commit.abaa5c0e.Emscripten.clang"
  },
  "schemaVersion": "3.4.13",
  "updatedAt": "2023-04-03T08:06:41.152Z",
  "devdoc": {
    "kind": "dev",
    "methods": {},
    "version": 1
  },
  "userdoc": {
    "kind": "user",
    "methods": {},
    "version": 1
  }
}