{
  "contractName": "SimpleMath",
  "abi": [
    {
      "inputs": [
        {
          "internalType": "int256[]",
          "name": "deta",
          "type": "int256[]"
        }
      ],
      "name": "sum",
      "outputs": [
        {
          "internalType": "int256",
          "name": "",
          "type": "int256"
        }
      ],
      "stateMutability": "pure",
      "type": "function",
      "constant": true
    },
    {
      "inputs": [
        {
          "internalType": "int256[]",
          "name": "deta",
          "type": "int256[]"
        }
      ],
      "name": "min",
      "outputs": [
        {
          "internalType": "int256",
          "name": "",
          "type": "int256"
        }
      ],
      "stateMutability": "pure",
      "type": "function",
      "constant": true
    },
    {
      "inputs": [
        {
          "internalType": "int256[]",
          "name": "deta",
          "type": "int256[]"
        }
      ],
      "name": "max",
      "outputs": [
        {
          "internalType": "int256",
          "name": "",
          "type": "int256"
        }
      ],
      "stateMutability": "pure",
      "type": "function",
      "constant": true
    },
    {
      "inputs": [
        {
          "internalType": "int256[]",
          "name": "deta",
          "type": "int256[]"
        }
      ],
      "name": "mean",
      "outputs": [
        {
          "internalType": "int256",
          "name": "",
          "type": "int256"
        }
      ],
      "stateMutability": "pure",
      "type": "function",
      "constant": true
    }
  ],
  "bytecode": "0x608060405234801561001057600080fd5b506108a3806100206000396000f3fe608060405234801561001057600080fd5b506004361061004c5760003560e01c806360cb66d014610051578063af6afce514610081578063ccc13814146100b1578063ee059977146100e1575b600080fd5b61006b600480360381019061006691906105a0565b610111565b60405161007891906105f8565b60405180910390f35b61009b600480360381019061009691906105a0565b6101a8565b6040516100a891906105f8565b60405180910390f35b6100cb60048036038101906100c691906105a0565b610281565b6040516100d891906105f8565b60405180910390f35b6100fb60048036038101906100f691906105a0565b61035a565b60405161010891906105f8565b60405180910390f35b600080825111610156576040517f08c379a000000000000000000000000000000000000000000000000000000000815260040161014d90610670565b60405180910390fd5b6000805b835181101561019e5783818151811061017657610175610690565b5b60200260200101518261018991906106ee565b915080806101969061078c565b91505061015a565b5080915050919050565b6000808251116101ed576040517f08c379a00000000000000000000000000000000000000000000000000000000081526004016101e490610670565b60405180910390fd5b6000805b835181101561027757600082036102245783818151811061021557610214610690565b5b60200260200101519150610264565b83818151811061023757610236610690565b5b602002602001015182126102635783818151811061025857610257610690565b5b602002602001015191505b5b808061026f9061078c565b9150506101f1565b5080915050919050565b6000808251116102c6576040517f08c379a00000000000000000000000000000000000000000000000000000000081526004016102bd90610670565b60405180910390fd5b6000805b835181101561035057600082036102fd578381815181106102ee576102ed610690565b5b6020026020010151915061033d565b8381815181106103105761030f610690565b5b6020026020010151821361033c5783818151811061033157610330610690565b5b602002602001015191505b5b80806103489061078c565b9150506102ca565b5080915050919050565b60008082511161039f576040517f08c379a000000000000000000000000000000000000000000000000000000000815260040161039690610670565b60405180910390fd5b6000805b83518110156103e7578381815181106103bf576103be610690565b5b6020026020010151826103d291906106ee565b915080806103df9061078c565b9150506103a3565b508251816103f59190610803565b915050919050565b6000604051905090565b600080fd5b600080fd5b600080fd5b6000601f19601f8301169050919050565b7f4e487b7100000000000000000000000000000000000000000000000000000000600052604160045260246000fd5b61045f82610416565b810181811067ffffffffffffffff8211171561047e5761047d610427565b5b80604052505050565b60006104916103fd565b905061049d8282610456565b919050565b600067ffffffffffffffff8211156104bd576104bc610427565b5b602082029050602081019050919050565b600080fd5b6000819050919050565b6104e6816104d3565b81146104f157600080fd5b50565b600081359050610503816104dd565b92915050565b600061051c610517846104a2565b610487565b9050808382526020820190506020840283018581111561053f5761053e6104ce565b5b835b81811015610568578061055488826104f4565b845260208401935050602081019050610541565b5050509392505050565b600082601f83011261058757610586610411565b5b8135610597848260208601610509565b91505092915050565b6000602082840312156105b6576105b5610407565b5b600082013567ffffffffffffffff8111156105d4576105d361040c565b5b6105e084828501610572565b91505092915050565b6105f2816104d3565b82525050565b600060208201905061060d60008301846105e9565b92915050565b600082825260208201905092915050565b7f496e76616c696420646174610000000000000000000000000000000000000000600082015250565b600061065a600c83610613565b915061066582610624565b602082019050919050565b600060208201905081810360008301526106898161064d565b9050919050565b7f4e487b7100000000000000000000000000000000000000000000000000000000600052603260045260246000fd5b7f4e487b7100000000000000000000000000000000000000000000000000000000600052601160045260246000fd5b60006106f9826104d3565b9150610704836104d3565b9250817f7fffffffffffffffffffffffffffffffffffffffffffffffffffffffffffffff0383136000831215161561073f5761073e6106bf565b5b817f8000000000000000000000000000000000000000000000000000000000000000038312600083121615610777576107766106bf565b5b828201905092915050565b6000819050919050565b600061079782610782565b91507fffffffffffffffffffffffffffffffffffffffffffffffffffffffffffffffff82036107c9576107c86106bf565b5b600182019050919050565b7f4e487b7100000000000000000000000000000000000000000000000000000000600052601260045260246000fd5b600061080e826104d3565b9150610819836104d3565b925082610829576108286107d4565b5b600160000383147f800000000000000000000000000000000000000000000000000000000000000083141615610862576108616106bf565b5b82820590509291505056fea264697066735822122005065f514864f96fb9237f85d05f61e443cb14552aa064fa12cc867044a284a364736f6c634300080d0033",
  "immutableReferences": {},
  "source": "// SPDX-License-Identifier: MIT\r\npragma solidity >=0.4.22 <0.9.0;\r\ncontract SimpleMath {\r\n  function sum(int [] memory deta) public pure returns (int){\r\n    require(deta.length > 0,\"Invalid data\");\r\n    int result = 0;\r\n    for (uint i;i < deta.length;i++){\r\n      result += deta[i];\r\n    }\r\n    return result;\r\n  }\r\n  function min(int [] memory deta) public pure returns (int){\r\n  require(deta.length > 0,\"Invalid data\");\r\n    int num = 0;\r\n    for (uint i;i < deta.length;i++){\r\n       if(num==0){\r\n        num = deta[i];\r\n      }\r\n      else if (num >= deta[i]){\r\n        num = deta[i];\r\n      }\r\n      continue;\r\n    }\r\n    return num;\r\n  }\r\n  function max(int [] memory deta) public pure returns (int){\r\n    require(deta.length > 0,\"Invalid data\");\r\n    int num = 0;\r\n    for (uint i;i < deta.length;i++){\r\n\r\n      if(num==0){\r\n        num = deta[i];\r\n      }\r\n      else if  (num <= deta[i]){\r\n        num = deta[i];\r\n      }\r\n      \r\n      continue;\r\n    }\r\n    return num;\r\n  }\r\n  function mean(int [] memory deta) public pure returns (int){\r\n      require(deta.length > 0,\"Invalid data\");\r\n      int result = 0;\r\n    for (uint i;i < deta.length;i++){\r\n      result += deta[i];\r\n    } \r\n    \r\n     return result /int(deta.length);\r\n  }\r\n}\r\n",
  "sourcePath": "C:\\Users\\Sayfar\\Desktop\\CE-340\\prep2-65\\slidity-tutorial\\contracts\\SimpleMath.sol",
  "compiler": {
    "name": "solc",
    "version": "0.8.13+commit.abaa5c0e.Emscripten.clang"
  },
  "schemaVersion": "3.4.11",
  "updatedAt": "2023-02-17T13:22:51.515Z",
  "networkType": "ethereum",
  "devdoc": {
    "kind": "dev",
    "methods": {},
    "version": 1
  },
  "userdoc": {
    "kind": "user",
    "methods": {},
    "version": 1
  }
}